:100000000004001009010000D5000000D900000024
:1000100000000000000000000000000000000000E0
:1000200000000000000000000000000000000000D0
:100030000000000000000000DD000000E100000002
:100040004D0100004D010000000000004D010000C6
:100050004D0100004D010000000000000000000004
:100060004D0100004D010000BD0700004D010000E2
:100070004D0100004D010000000000004D01000096
:100080000000000000000000000000000000000070
:100090000000000000000000000000000000000060
:1000A000C5020000CF020000D90200004D0100008F
:1000B000E3020000ED020000F7020000010300006F
:1000C000800A000000000010080000000800001076
:1000D000F800000000B5FEE700B5FEE700B5FEE75A
:1000E00000B5FEE710B5002302E01C58043310C130
:1000F0009342FAD310BD10B5031C002200E004C3E4
:100100001C1A8C42FBD310BD38B50C4C0C4D05E0CD
:1001100020686168A2680C34FFF7E4FFAC42F7D3B3
:1001200005E0206861680834FFF7E5FF00E0054D51
:10013000AC42F6D300F040FCFEE7C046C000000031
:10014000CC000000D400000000B5FEE700B5FEE7DB
:10015000074B40201A1DD16F0143D1675968054AEA
:100160000A405A6059688022D2000A435A60704798
:1001700000800440FFFBFFFF00B51F290AD884233D
:10018000A0229B011206D05801238B401840411E2B
:10019000884107E00020FF2904D18423A0229B018D
:1001A0001206D05800BD00B50120A02388401B06D0
:1001B000011C002A01D0882200E08A229201995075
:1001C00000BD10B5A020802300069B010124002A59
:1001D00005D0C2588C40211C1143C15003E0C258C5
:1001E0008C40A243C25010BD30B5314B021C800080
:1001F000C158304C0131C150A56A0121231C0D4268
:100200002FD05000216B80180830C140081C0721F6
:1002100008400138062849D800F00CFC07070704FD
:1002200004481900244B920017E00121E469914031
:10023000204892000C4202D0C161204901E00162D5
:100240001F49885801308850DA6ADA622EE01B4B69
:100250009200D1580131D150194BD1580131D150B0
:1002600024E0656A91400D4220D024680C4204D0FD
:10027000114BC2580132C25018E0DC690C4207D061
:100280005C680C4204D00D4C055901350551D9610B
:100290001C6A08480C4208D004690C4205D0084C7E
:1002A00092001559013515510162596230BDC046A1
:1002B00028000010004000A0680000104800001056
:1002C0000800001008B50020FFF78EFF08BD08B534
:1002D0000120FFF789FF08BD08B50220FFF784FF62
:1002E00008BD08B50420FFF77FFF08BD08B505204D
:1002F000FFF77AFF08BD08B50620FFF775FF08BDB8
:1003000008B50720FFF770FF08BD000000B5154BCA
:10031000802118680901144A084212D01868014364
:100320001960596891420BD19968104A914207D1DE
:10033000D9680F4A914203D11A690E4B9A420FD0E5
:10034000FEE75A60094A04209A60094ADA60094ABD
:100350001A61094A11690143116103221A6030BF11
:1003600000BDC04600000240785634122143658724
:10037000341278566587214300ED00E0064B80215A
:10038000DA6F0A43DA67054B054A41219A61E02298
:1003900049425200995070470480044000C0004018
:1003A000FFFFFF0110B5041C211C00200122FFF7F4
:1003B00008FF0020211C021CFFF7F5FE10BD08B548
:1003C000011C0020021CFFF7FCFE08BD08B5011C43
:1003D0000020FFF7D1FE4342584108BD08B5002870
:1003E00001D1074809E0022801D1064805E00428A8
:1003F00001D1054801E0FA20400100F087FA08BD6C
:100400001027000070170000E02E000070B50020DB
:10041000FFF7C8FF0220FFF7C5FFFA260420FFF709
:10042000C1FF76000320FFF7BDFF00F067FA301C24
:1004300000F0FAF90020FFF7C2FF0220FFF7BFFF2C
:100440000420FFF7BCFF0320FFF7B9FFC82000F02E
:10045000EBF90C4C0C4D2378E85CFFF7A3FF2378F5
:10046000E85CFFF7BBFF301C00F0DEF92378E85CA6
:10047000FFF7A5FF00F042FAFFF748FF034B022207
:100480001A7070BD88000010980000100000001065
:1004900070B500F04DFAFFF75BFE0020021C022150
:1004A000FFF78FFE0020011C021CFFF78AFE0020D0
:1004B000021C0421FFF785FE0020021C0321FFF728
:1004C00080FEAF4BFA211868890000F079FA00F03D
:1004D00085F9FFF753FFAB498022C86F5200AA4B42
:1004E0001043C8675868A9490140596059680A43D0
:1004F0005A6000F0A3F9A64B04219A888A439A8097
:1005000000F0FCF9A34A1478012C00D194E0002CEF
:1005100049D0022CF6D1A04B8022196812010A435F
:100520001A6004E09D4B1A780132D2B21A70002092
:10053000FFF74CFF0028F5D10420FFF747FF002804
:10054000F0D10320FFF742FF0028EBD10220FFF794
:100550003DFF041EE6D1201CFFF724FF0220FFF719
:1005600021FF0420FFF71EFF0320FFF71BFFC82019
:1005700000F05AF9201CFFF722FF0220FFF71FFFAF
:100580000420FFF71CFF0320FFF719FFFA204000AB
:1005900000F04AF97F4B1C70814B1C70814B1C7022
:1005A000814B1C60AEE77D4A032013787F490340EE
:1005B000137015787A4B012D02D01478022C02D1D9
:1005C0001A788C5407E01278032A02D11A78042092
:1005D00000E01A7888540132D2B2714D1A702B782B
:1005E000632B00D9C0E0FA20400000F01DF9002480
:1005F0002E1C15E06D4D285DFFF7D4FE285DFFF73A
:10060000EDFEFA20400000F00FF9285DFFF7D7FE5D
:1006100000F074F9FA20400000F006F90134E4B269
:1006200033789C42E6D35F4A00231370594A012174
:1006300011705D4A136065E75A4C594B21781B785D
:10064000994200D399E00020FFF7C0FE051E1DD09F
:10065000574800F05BF92378544AD55C002D00D050
:1006600082E023780A200133DBB2237000F0DCF84B
:100670004D4B4A4C1D6003E023780133DBB22370FD
:100680000020FFF7A3FE0028F6D170E00420FFF75A
:100690009DFE061E1CD0474800F038F92378434AD7
:1006A000D35C042B60D123780A200133DBB22370A2
:1006B00000F0BAF83C4B394C1D6003E0237801335D
:1006C000DBB223700420FFF781FE0028F6D14EE054
:1006D0000220FFF77BFE051E1CD0374800F016F9FC
:1006E0002378324AD35C022B3ED123780A2001338F
:1006F000DBB2237000F098F82B4B284C1E6003E00F
:1007000023780133DBB223700220FFF75FFE00285D
:10071000F6D12CE00320FFF759FE00281DD0FA2067
:10072000400100F0F3F82378204AD35C032B1BD15F
:1007300023780A200133DBB2237000F075F81A4BDE
:10074000164C1D6003E023780133DBB223700320D5
:10075000FFF73CFE0028F6D109E0134B1A6801327E
:100760001A601B68F92B02D9FFF750FECAE600F0A9
:10077000C5F8142000F058F8C4E600231370C1E651
:10078000040000100480044000800440FFFEFFFFCE
:1007900000400050000000100000024089000010DE
:1007A00090000010880000108C00001098000010CD
:1007B00010270000E02E00007017000000B5054B68
:1007C0000122D968114204D0DA60034B1A68013261
:1007D0001A6000BD004000409400001010B50E4BA0
:1007E0008022191DCC6FD2001443CC675C68802135
:1007F0008C435C605C6821435960084B00211960A0
:10080000074B80211860186809060143196001210F
:100810009960044B1A6010BD0080044094000010E1
:100820000040004000E100E000B5034B00221A60E8
:100830001A688242FCD300BD9400001030B5284BEA
:10084000284A1968181C0A4001210A431A604C30D2
:10085000002202801C1C2448FC3460608024A40018
:100860001851A0240220E4001851204CD025195121
:10087000A124E4001A511E4C2D021A51A224E400B6
:100880001A511C4C1A51A324E4001A511A4C1A5143
:100890001C6D0C431C65C12484401D51C024844040
:1008A0001951A024C3218140E4015C50C221814040
:1008B0005850C42181405A50C62181405A50C82105
:1008C00081405A50CA2181405A50991DCA8703213C
:1008D0009A821A829A811981F0331A6030BDC0461B
:1008E00000400050FEFFF9FF102700000405000043
:1008F0000C050000140500001C050000024B062139
:100900005A680A435A60704700400050074B08215C
:100910005A680A435A601A1CFC32506080229200C6
:1009200098505A6806218A435A6070470040005028
:1009300070B51D4D00206B6ADB051B0F013B0E2BB4
:1009400002D81A4A9B009858696A2A6F0326164BE8
:100950003240174C022A0CD0B24212D0012A03D1E5
:100960001B6C1E40022E01D0124B00E000232360BE
:1009700012E01F2319404900023100F021F82060E5
:100980000AE0196C0A40022AF0D09B681F2009492E
:100990001840013041432160054CA96F206800F0E8
:1009A0000FF8206070BDC04600800440440A00007B
:1009B00004000010001BB70008B5FFF769FD08BD73
:1009C000002931D00122D207030901E009011209EF
:1009D0009942FBD9430801E0490052089942FBD9EA
:1009E00000E04908401A07D35241FAD301461046A5
:1009F000704749084018F7D29218FAD340180146B8
:100A000010467047CB0F00D04942021000D540423B
:100A1000534008B5FFF7D4FF0CBC521000D340423E
:100A2000002A00D549421847F446002000F001F89A
:100A3000604770478C4671460139095C49008E4415
:100A40006146704720A1070000350C00E0C8100087
:100A5000C05C1500006A180040771B0080841E00EF
:100A6000C0912100009F240040AC2700E032290003
:100A700020402C00604D2F0000D4300040E13300B6
:080A80000200000000366E01C7
:0400000300000109EF
:00000001FF
